:04000000C1EF0FF04D
:101F82000001C4EF0FF0938093829398939A6C0EA2
:101F9200D36EC1929282C09EC198C296C284C09AE8
:101FA200C098C096C084C092C090C280C282C2B2A1
:101FB200FED781B081A205D0D00EC46402D0818840
:101FC20001D08198819A81A081B209D00E0EC46499
:101FD20006D0200EC46003D08188818A02D0819805
:101FE200819A81B081B208D0D60EC46405D0ED0EBC
:0E1FF200C46002D0818801D08198819AD7D72F
:020000040020DA
:08000000FFFFFFFFFFFFFFFF00
:020000040030CA
:0E000000FF09191E0E0180FF03C003E003403C
:00000001FF
